{
  "_format": "hh-sol-artifact-1",
  "contractName": "FW7Bridge",
  "sourceName": "contracts/FW7Bridge.sol",
  "abi": [
    {
      "inputs": [
        {
          "internalType": "address",
          "name": "_token",
          "type": "address"
        }
      ],
      "stateMutability": "nonpayable",
      "type": "constructor"
    },
    {
      "anonymous": false,
      "inputs": [
        {
          "indexed": true,
          "internalType": "address",
          "name": "_sender",
          "type": "address"
        },
        {
          "indexed": false,
          "internalType": "uint256",
          "name": "_amount",
          "type": "uint256"
        }
      ],
      "name": "ClaimTokens",
      "type": "event"
    },
    {
      "anonymous": false,
      "inputs": [
        {
          "indexed": true,
          "internalType": "address",
          "name": "_sender",
          "type": "address"
        },
        {
          "indexed": true,
          "internalType": "address",
          "name": "_receiver",
          "type": "address"
        },
        {
          "indexed": false,
          "internalType": "uint256",
          "name": "_amount",
          "type": "uint256"
        }
      ],
      "name": "DepositTokens",
      "type": "event"
    },
    {
      "anonymous": false,
      "inputs": [
        {
          "indexed": true,
          "internalType": "address",
          "name": "previousOwner",
          "type": "address"
        },
        {
          "indexed": true,
          "internalType": "address",
          "name": "newOwner",
          "type": "address"
        }
      ],
      "name": "OwnershipTransferred",
      "type": "event"
    },
    {
      "anonymous": false,
      "inputs": [
        {
          "indexed": true,
          "internalType": "address",
          "name": "_sender",
          "type": "address"
        },
        {
          "indexed": true,
          "internalType": "address",
          "name": "_receiver",
          "type": "address"
        },
        {
          "indexed": false,
          "internalType": "uint256",
          "name": "_amount",
          "type": "uint256"
        }
      ],
      "name": "ReturnTokens",
      "type": "event"
    },
    {
      "anonymous": false,
      "inputs": [
        {
          "indexed": true,
          "internalType": "address",
          "name": "_receiver",
          "type": "address"
        },
        {
          "indexed": false,
          "internalType": "uint256",
          "name": "_amount",
          "type": "uint256"
        },
        {
          "indexed": false,
          "internalType": "bytes32",
          "name": "_otherChainTransactionHash",
          "type": "bytes32"
        }
      ],
      "name": "TokensBridged",
      "type": "event"
    },
    {
      "stateMutability": "payable",
      "type": "fallback"
    },
    {
      "inputs": [
        {
          "internalType": "address",
          "name": "",
          "type": "address"
        }
      ],
      "name": "bridged",
      "outputs": [
        {
          "internalType": "uint256",
          "name": "",
          "type": "uint256"
        }
      ],
      "stateMutability": "view",
      "type": "function"
    },
    {
      "inputs": [],
      "name": "claimTokens",
      "outputs": [],
      "stateMutability": "payable",
      "type": "function"
    },
    {
      "inputs": [
        {
          "internalType": "address",
          "name": "_receiver",
          "type": "address"
        },
        {
          "internalType": "uint256",
          "name": "_amount",
          "type": "uint256"
        },
        {
          "internalType": "uint256",
          "name": "_deadline",
          "type": "uint256"
        },
        {
          "internalType": "uint8",
          "name": "_v",
          "type": "uint8"
        },
        {
          "internalType": "bytes32",
          "name": "_r",
          "type": "bytes32"
        },
        {
          "internalType": "bytes32",
          "name": "_s",
          "type": "bytes32"
        }
      ],
      "name": "depositTokens",
      "outputs": [],
      "stateMutability": "payable",
      "type": "function"
    },
    {
      "inputs": [],
      "name": "fee",
      "outputs": [
        {
          "internalType": "uint256",
          "name": "",
          "type": "uint256"
        }
      ],
      "stateMutability": "view",
      "type": "function"
    },
    {
      "inputs": [],
      "name": "locked",
      "outputs": [
        {
          "internalType": "uint256",
          "name": "",
          "type": "uint256"
        }
      ],
      "stateMutability": "view",
      "type": "function"
    },
    {
      "inputs": [],
      "name": "owner",
      "outputs": [
        {
          "internalType": "address",
          "name": "",
          "type": "address"
        }
      ],
      "stateMutability": "view",
      "type": "function"
    },
    {
      "inputs": [
        {
          "internalType": "bytes32",
          "name": "",
          "type": "bytes32"
        }
      ],
      "name": "processedHashes",
      "outputs": [
        {
          "internalType": "bool",
          "name": "",
          "type": "bool"
        }
      ],
      "stateMutability": "view",
      "type": "function"
    },
    {
      "inputs": [],
      "name": "renounceOwnership",
      "outputs": [],
      "stateMutability": "nonpayable",
      "type": "function"
    },
    {
      "inputs": [
        {
          "internalType": "address",
          "name": "_receiver",
          "type": "address"
        }
      ],
      "name": "returnTokens",
      "outputs": [],
      "stateMutability": "payable",
      "type": "function"
    },
    {
      "inputs": [],
      "name": "token",
      "outputs": [
        {
          "internalType": "contract IToken",
          "name": "",
          "type": "address"
        }
      ],
      "stateMutability": "view",
      "type": "function"
    },
    {
      "inputs": [
        {
          "internalType": "address",
          "name": "_receiver",
          "type": "address"
        },
        {
          "internalType": "uint256",
          "name": "_amount",
          "type": "uint256"
        },
        {
          "internalType": "bytes32",
          "name": "_otherChainTransactionHash",
          "type": "bytes32"
        }
      ],
      "name": "tokensBridged",
      "outputs": [],
      "stateMutability": "nonpayable",
      "type": "function"
    },
    {
      "inputs": [
        {
          "internalType": "address",
          "name": "newOwner",
          "type": "address"
        }
      ],
      "name": "transferOwnership",
      "outputs": [],
      "stateMutability": "nonpayable",
      "type": "function"
    },
    {
      "inputs": [],
      "name": "withdraw",
      "outputs": [],
      "stateMutability": "nonpayable",
      "type": "function"
    },
    {
      "stateMutability": "payable",
      "type": "receive"
    }
  ],
  "bytecode": "0x60806040526611c37937e0800060055534801561001b57600080fd5b50604051610de6380380610de683398101604081905261003a916100ba565b806100443361006a565b600180546001600160a01b0319166001600160a01b0392909216919091179055506100e8565b600080546001600160a01b038381166001600160a01b0319831681178455604051919092169283917f8be0079c531659141344cd1fd0a4f28419497f9722a3daafe3b4186f6b6457e09190a35050565b6000602082840312156100cb578081fd5b81516001600160a01b03811681146100e1578182fd5b9392505050565b610cef806100f76000396000f3fe6080604052600436106100c65760003560e01c80639ba3277a1161007f578063ddca3f4311610059578063ddca3f4314610281578063e08f240614610297578063f2fde38b146102aa578063fc0c546a146102ca57610111565b80639ba3277a1461021d578063cf30901214610258578063d3ef77401461026e57610111565b806307d9c53414610152578063147e78b4146101975780633ccfd60b146101b957806348c54b9d146101ce578063715018a6146101d65780638da5cb5b146101eb57610111565b366101115760405162461bcd60e51b81526020600482015260166024820152752237b713ba1030b1b1b2b83a1030b73c9022ba3432b960511b60448201526064015b60405180910390fd5b60405162461bcd60e51b81526020600482015260166024820152752237b713ba1030b1b1b2b83a1030b73c9022ba3432b960511b6044820152606401610108565b34801561015e57600080fd5b5061018261016d366004610bd0565b60036020526000908152604090205460ff1681565b60405190151581526020015b60405180910390f35b3480156101a357600080fd5b506101b76101b2366004610b20565b6102ea565b005b3480156101c557600080fd5b506101b7610481565b6101b76104e8565b3480156101e257600080fd5b506101b76106b0565b3480156101f757600080fd5b506000546001600160a01b03165b6040516001600160a01b03909116815260200161018e565b34801561022957600080fd5b5061024a610238366004610aff565b60026020526000908152604090205481565b60405190815260200161018e565b34801561026457600080fd5b5061024a60045481565b6101b761027c366004610aff565b6106e6565b34801561028d57600080fd5b5061024a60055481565b6101b76102a5366004610b52565b6107c1565b3480156102b657600080fd5b506101b76102c5366004610aff565b6109ff565b3480156102d657600080fd5b50600154610205906001600160a01b031681565b6000546001600160a01b031633146103145760405162461bcd60e51b815260040161010890610c12565b600082116103345760405162461bcd60e51b815260040161010890610c47565b60008181526003602052604090205460ff16156103935760405162461bcd60e51b815260206004820152601a60248201527f5472616e7366657220616c72656164792070726f6365737365640000000000006044820152606401610108565b6000818152600360209081526040808320805460ff191660011790556001600160a01b03861683526002909152812080548492906103d2908490610c74565b90915550506001600160a01b0383166000908152600260205260409020548211156104385760405162461bcd60e51b8152602060048201526016602482015275546f74616c2062726964676564206f766572666c6f7760501b6044820152606401610108565b60408051838152602081018390526001600160a01b038516917f2f9a6098d4503a127779ba975f5f6b04f842362b1809f346989e9abc0b4dedb6910160405180910390a2505050565b6000546001600160a01b031633146104ab5760405162461bcd60e51b815260040161010890610c12565b600080546040516001600160a01b03909116914780156108fc02929091818181858888f193505050501580156104e5573d6000803e3d6000fd5b50565b60055434101561050a5760405162461bcd60e51b815260040161010890610be8565b33600090815260026020526040902054806105375760405162461bcd60e51b815260040161010890610c47565b8060045410156105895760405162461bcd60e51b815260206004820152601a60248201527f496e73756666696369656e74206c6f636b656420746f6b656e730000000000006044820152606401610108565b806004600082825461059b9190610c8c565b90915550503360008181526002602052604080822091909155600154905163a9059cbb60e01b81526004810192909252602482018390526001600160a01b03169063a9059cbb90604401602060405180830381600087803b1580156105ff57600080fd5b505af1158015610613573d6000803e3d6000fd5b505050506040513d601f19601f820116820180604052508101906106379190610bb0565b6106785760405162461bcd60e51b81526020600482015260126024820152712330b4b632b2103a37903a3930b739b332b960711b6044820152606401610108565b60405181815233907f4d7f917f6b905f28ba5297e6c224a6cfec20ac6a3698a55b412d30b95ad25d2f9060200160405180910390a250565b6000546001600160a01b031633146106da5760405162461bcd60e51b815260040161010890610c12565b6106e46000610a93565b565b6005543410156107085760405162461bcd60e51b815260040161010890610be8565b33600090815260026020526040902054806107655760405162461bcd60e51b815260206004820152601b60248201527f496e73756666696369656e74206272696467656420746f6b656e7300000000006044820152606401610108565b3360008181526002602052604080822091909155516001600160a01b03841691907fc1486b07ce125926333063fe38ab9b2673834c6959031ebbb9c5a405e278315d906107b59085815260200190565b60405180910390a35050565b6005543410156107e35760405162461bcd60e51b815260040161010890610be8565b600085116108035760405162461bcd60e51b815260040161010890610c47565b84600460008282546108159190610c74565b90915550506004548511156108645760405162461bcd60e51b8152602060048201526015602482015274546f74616c206c6f636b6564206f766572666c6f7760581b6044820152606401610108565b60015460405163d505accf60e01b8152336004820152306024820152604481018790526064810186905260ff8516608482015260a4810184905260c481018390526001600160a01b039091169063d505accf9060e401600060405180830381600087803b1580156108d457600080fd5b505af11580156108e8573d6000803e3d6000fd5b50506001546040516323b872dd60e01b8152336004820152306024820152604481018990526001600160a01b0390911692506323b872dd9150606401602060405180830381600087803b15801561093e57600080fd5b505af1158015610952573d6000803e3d6000fd5b505050506040513d601f19601f820116820180604052508101906109769190610bb0565b6109b75760405162461bcd60e51b81526020600482015260126024820152712330b4b632b2103a37903a3930b739b332b960711b6044820152606401610108565b6040518581526001600160a01b0387169033907f5b2c363c4205d12f22a6dc6a35136117f80f8cd6897d7a05e7e2987883b050049060200160405180910390a3505050505050565b6000546001600160a01b03163314610a295760405162461bcd60e51b815260040161010890610c12565b6001600160a01b038116610a8e5760405162461bcd60e51b815260206004820152602660248201527f4f776e61626c653a206e6577206f776e657220697320746865207a65726f206160448201526564647265737360d01b6064820152608401610108565b6104e5815b600080546001600160a01b038381166001600160a01b0319831681178455604051919092169283917f8be0079c531659141344cd1fd0a4f28419497f9722a3daafe3b4186f6b6457e09190a35050565b80356001600160a01b0381168114610afa57600080fd5b919050565b600060208284031215610b10578081fd5b610b1982610ae3565b9392505050565b600080600060608486031215610b34578182fd5b610b3d84610ae3565b95602085013595506040909401359392505050565b60008060008060008060c08789031215610b6a578182fd5b610b7387610ae3565b95506020870135945060408701359350606087013560ff81168114610b96578283fd5b9598949750929560808101359460a0909101359350915050565b600060208284031215610bc1578081fd5b81518015158114610b19578182fd5b600060208284031215610be1578081fd5b5035919050565b60208082526010908201526f496e73756666696369656e742066656560801b604082015260600190565b6020808252818101527f4f776e61626c653a2063616c6c6572206973206e6f7420746865206f776e6572604082015260600190565b602080825260139082015272496e73756666696369656e7420746f6b656e7360681b604082015260600190565b60008219821115610c8757610c87610ca3565b500190565b600082821015610c9e57610c9e610ca3565b500390565b634e487b7160e01b600052601160045260246000fdfea264697066735822122004f2959936b085cc3826698708edf254f8c3b08063caf51af6b6385d624df49c64736f6c63430008040033",
  "linkReferences": {},
  "deployedLinkReferences": {}
}