{
  "_format": "hh-sol-artifact-1",
  "contractName": "FW7Bridge",
  "sourceName": "contracts/FW7Bridge.sol",
  "abi": [
    {
      "inputs": [
        {
          "internalType": "address",
          "name": "_token",
          "type": "address"
        }
      ],
      "stateMutability": "nonpayable",
      "type": "constructor"
    },
    {
      "anonymous": false,
      "inputs": [
        {
          "indexed": true,
          "internalType": "address",
          "name": "sender",
          "type": "address"
        },
        {
          "indexed": false,
          "internalType": "uint256",
          "name": "_amount",
          "type": "uint256"
        }
      ],
      "name": "ClaimTokens",
      "type": "event"
    },
    {
      "anonymous": false,
      "inputs": [
        {
          "indexed": true,
          "internalType": "address",
          "name": "receiver",
          "type": "address"
        },
        {
          "indexed": false,
          "internalType": "uint256",
          "name": "_amount",
          "type": "uint256"
        }
      ],
      "name": "DepositTokens",
      "type": "event"
    },
    {
      "anonymous": false,
      "inputs": [
        {
          "indexed": true,
          "internalType": "address",
          "name": "previousOwner",
          "type": "address"
        },
        {
          "indexed": true,
          "internalType": "address",
          "name": "newOwner",
          "type": "address"
        }
      ],
      "name": "OwnershipTransferred",
      "type": "event"
    },
    {
      "anonymous": false,
      "inputs": [
        {
          "indexed": true,
          "internalType": "address",
          "name": "sender",
          "type": "address"
        },
        {
          "indexed": false,
          "internalType": "uint256",
          "name": "_amount",
          "type": "uint256"
        }
      ],
      "name": "ReturnTokens",
      "type": "event"
    },
    {
      "anonymous": false,
      "inputs": [
        {
          "indexed": true,
          "internalType": "address",
          "name": "_receiver",
          "type": "address"
        },
        {
          "indexed": false,
          "internalType": "uint256",
          "name": "_amount",
          "type": "uint256"
        },
        {
          "indexed": false,
          "internalType": "bytes32",
          "name": "_otherChainTransactionHash",
          "type": "bytes32"
        }
      ],
      "name": "TokensBridged",
      "type": "event"
    },
    {
      "stateMutability": "payable",
      "type": "fallback"
    },
    {
      "inputs": [
        {
          "internalType": "address",
          "name": "",
          "type": "address"
        }
      ],
      "name": "bridged",
      "outputs": [
        {
          "internalType": "uint256",
          "name": "",
          "type": "uint256"
        }
      ],
      "stateMutability": "view",
      "type": "function"
    },
    {
      "inputs": [],
      "name": "claimTokens",
      "outputs": [],
      "stateMutability": "nonpayable",
      "type": "function"
    },
    {
      "inputs": [
        {
          "internalType": "address",
          "name": "_receiver",
          "type": "address"
        },
        {
          "internalType": "uint256",
          "name": "_amount",
          "type": "uint256"
        }
      ],
      "name": "depositTokens",
      "outputs": [],
      "stateMutability": "nonpayable",
      "type": "function"
    },
    {
      "inputs": [],
      "name": "locked",
      "outputs": [
        {
          "internalType": "uint256",
          "name": "",
          "type": "uint256"
        }
      ],
      "stateMutability": "view",
      "type": "function"
    },
    {
      "inputs": [],
      "name": "owner",
      "outputs": [
        {
          "internalType": "address",
          "name": "",
          "type": "address"
        }
      ],
      "stateMutability": "view",
      "type": "function"
    },
    {
      "inputs": [
        {
          "internalType": "bytes32",
          "name": "",
          "type": "bytes32"
        }
      ],
      "name": "processedHashes",
      "outputs": [
        {
          "internalType": "bool",
          "name": "",
          "type": "bool"
        }
      ],
      "stateMutability": "view",
      "type": "function"
    },
    {
      "inputs": [],
      "name": "renounceOwnership",
      "outputs": [],
      "stateMutability": "nonpayable",
      "type": "function"
    },
    {
      "inputs": [
        {
          "internalType": "address",
          "name": "_receiver",
          "type": "address"
        }
      ],
      "name": "returnTokens",
      "outputs": [],
      "stateMutability": "nonpayable",
      "type": "function"
    },
    {
      "inputs": [],
      "name": "token",
      "outputs": [
        {
          "internalType": "contract IToken",
          "name": "",
          "type": "address"
        }
      ],
      "stateMutability": "view",
      "type": "function"
    },
    {
      "inputs": [
        {
          "internalType": "address",
          "name": "_receiver",
          "type": "address"
        },
        {
          "internalType": "uint256",
          "name": "_amount",
          "type": "uint256"
        },
        {
          "internalType": "bytes32",
          "name": "_otherChainTransactionHash",
          "type": "bytes32"
        }
      ],
      "name": "tokensBridged",
      "outputs": [],
      "stateMutability": "nonpayable",
      "type": "function"
    },
    {
      "inputs": [
        {
          "internalType": "address",
          "name": "newOwner",
          "type": "address"
        }
      ],
      "name": "transferOwnership",
      "outputs": [],
      "stateMutability": "nonpayable",
      "type": "function"
    },
    {
      "stateMutability": "payable",
      "type": "receive"
    }
  ],
  "bytecode": "0x608060405234801561001057600080fd5b50604051610c81380380610c8183398101604081905261002f916100af565b806100393361005f565b600180546001600160a01b0319166001600160a01b0392909216919091179055506100dd565b600080546001600160a01b038381166001600160a01b0319831681178455604051919092169283917f8be0079c531659141344cd1fd0a4f28419497f9722a3daafe3b4186f6b6457e09190a35050565b6000602082840312156100c0578081fd5b81516001600160a01b03811681146100d6578182fd5b9392505050565b610b95806100ec6000396000f3fe6080604052600436106100a05760003560e01c80638da5cb5b116100645780638da5cb5b146101dd5780639ba3277a1461020f578063cf3090121461024a578063d3ef774014610260578063f2fde38b14610280578063fc0c546a146102a0576100eb565b806307d9c5341461012c578063147e78b41461017157806348c54b9d1461019357806366168bd7146101a8578063715018a6146101c8576100eb565b366100eb5760405162461bcd60e51b81526020600482015260166024820152752237b713ba1030b1b1b2b83a1030b73c9022ba3432b960511b60448201526064015b60405180910390fd5b60405162461bcd60e51b81526020600482015260166024820152752237b713ba1030b1b1b2b83a1030b73c9022ba3432b960511b60448201526064016100e2565b34801561013857600080fd5b5061015c610147366004610aa0565b60036020526000908152604090205460ff1681565b60405190151581526020015b60405180910390f35b34801561017d57600080fd5b5061019161018c366004610a4e565b6102c0565b005b34801561019f57600080fd5b50610191610457565b3480156101b457600080fd5b506101916101c3366004610a25565b610688565b3480156101d457600080fd5b5061019161081b565b3480156101e957600080fd5b506000546001600160a01b03165b6040516001600160a01b039091168152602001610168565b34801561021b57600080fd5b5061023c61022a366004610a04565b60026020526000908152604090205481565b604051908152602001610168565b34801561025657600080fd5b5061023c60045481565b34801561026c57600080fd5b5061019161027b366004610a04565b610851565b34801561028c57600080fd5b5061019161029b366004610a04565b6108fd565b3480156102ac57600080fd5b506001546101f7906001600160a01b031681565b6000546001600160a01b031633146102ea5760405162461bcd60e51b81526004016100e290610ab8565b6000821161030a5760405162461bcd60e51b81526004016100e290610aed565b60008181526003602052604090205460ff16156103695760405162461bcd60e51b815260206004820152601a60248201527f5472616e7366657220616c72656164792070726f63657373656400000000000060448201526064016100e2565b6000818152600360209081526040808320805460ff191660011790556001600160a01b03861683526002909152812080548492906103a8908490610b1a565b90915550506001600160a01b03831660009081526002602052604090205482111561040e5760405162461bcd60e51b8152602060048201526016602482015275546f74616c2062726964676564206f766572666c6f7760501b60448201526064016100e2565b60408051838152602081018390526001600160a01b038516917f2f9a6098d4503a127779ba975f5f6b04f842362b1809f346989e9abc0b4dedb6910160405180910390a2505050565b33600090815260026020526040902054806104845760405162461bcd60e51b81526004016100e290610aed565b8060045410156104d65760405162461bcd60e51b815260206004820152601a60248201527f496e73756666696369656e74206c6f636b656420746f6b656e7300000000000060448201526064016100e2565b80600460008282546104e89190610b32565b90915550503360008181526002602052604080822091909155600154905163095ea7b360e01b81526004810192909252602482018390526001600160a01b03169063095ea7b390604401602060405180830381600087803b15801561054c57600080fd5b505af1158015610560573d6000803e3d6000fd5b505050506040513d601f19601f820116820180604052508101906105849190610a80565b506001546040516323b872dd60e01b8152306004820152336024820152604481018390526001600160a01b03909116906323b872dd90606401602060405180830381600087803b1580156105d757600080fd5b505af11580156105eb573d6000803e3d6000fd5b505050506040513d601f19601f8201168201806040525081019061060f9190610a80565b6106505760405162461bcd60e51b81526020600482015260126024820152712330b4b632b2103a37903a3930b739b332b960711b60448201526064016100e2565b60405181815233907f4d7f917f6b905f28ba5297e6c224a6cfec20ac6a3698a55b412d30b95ad25d2f9060200160405180910390a250565b600081116106a85760405162461bcd60e51b81526004016100e290610aed565b80600460008282546106ba9190610b1a565b90915550506004548111156107095760405162461bcd60e51b8152602060048201526015602482015274546f74616c206c6f636b6564206f766572666c6f7760581b60448201526064016100e2565b6001546040516323b872dd60e01b8152336004820152306024820152604481018390526001600160a01b03909116906323b872dd90606401602060405180830381600087803b15801561075b57600080fd5b505af115801561076f573d6000803e3d6000fd5b505050506040513d601f19601f820116820180604052508101906107939190610a80565b6107d45760405162461bcd60e51b81526020600482015260126024820152712330b4b632b2103a37903a3930b739b332b960711b60448201526064016100e2565b816001600160a01b03167fe3a6e26dceff30d982e183d0ce051fb5b791f2108785a9d440d417247cef5b418260405161080f91815260200190565b60405180910390a25050565b6000546001600160a01b031633146108455760405162461bcd60e51b81526004016100e290610ab8565b61084f6000610998565b565b33600090815260026020526040902054806108ae5760405162461bcd60e51b815260206004820152601b60248201527f496e73756666696369656e74206272696467656420746f6b656e73000000000060448201526064016100e2565b3360009081526002602052604080822091909155516001600160a01b038316907fffd5f5f77727ae455ee2a18b7d41acbc31e2743ce9087e9b99f5e3630cb21de09061080f9084815260200190565b6000546001600160a01b031633146109275760405162461bcd60e51b81526004016100e290610ab8565b6001600160a01b03811661098c5760405162461bcd60e51b815260206004820152602660248201527f4f776e61626c653a206e6577206f776e657220697320746865207a65726f206160448201526564647265737360d01b60648201526084016100e2565b61099581610998565b50565b600080546001600160a01b038381166001600160a01b0319831681178455604051919092169283917f8be0079c531659141344cd1fd0a4f28419497f9722a3daafe3b4186f6b6457e09190a35050565b80356001600160a01b03811681146109ff57600080fd5b919050565b600060208284031215610a15578081fd5b610a1e826109e8565b9392505050565b60008060408385031215610a37578081fd5b610a40836109e8565b946020939093013593505050565b600080600060608486031215610a62578081fd5b610a6b846109e8565b95602085013595506040909401359392505050565b600060208284031215610a91578081fd5b81518015158114610a1e578182fd5b600060208284031215610ab1578081fd5b5035919050565b6020808252818101527f4f776e61626c653a2063616c6c6572206973206e6f7420746865206f776e6572604082015260600190565b602080825260139082015272496e73756666696369656e7420746f6b656e7360681b604082015260600190565b60008219821115610b2d57610b2d610b49565b500190565b600082821015610b4457610b44610b49565b500390565b634e487b7160e01b600052601160045260246000fdfea26469706673582212209c7e0b3ac782b93e6ab55fda8363cc771cf61ed8ede35180d8361160a34c085364736f6c63430008040033",
  "linkReferences": {},
  "deployedLinkReferences": {}
}