{
  "_format": "hh-sol-artifact-1",
  "contractName": "FW7Bridge",
  "sourceName": "contracts/FW7Bridge.sol",
  "abi": [
    {
      "inputs": [
        {
          "internalType": "address",
          "name": "_token",
          "type": "address"
        }
      ],
      "stateMutability": "nonpayable",
      "type": "constructor"
    },
    {
      "anonymous": false,
      "inputs": [
        {
          "indexed": true,
          "internalType": "address",
          "name": "_sender",
          "type": "address"
        },
        {
          "indexed": false,
          "internalType": "uint256",
          "name": "_amount",
          "type": "uint256"
        }
      ],
      "name": "ClaimTokens",
      "type": "event"
    },
    {
      "anonymous": false,
      "inputs": [
        {
          "indexed": true,
          "internalType": "address",
          "name": "_sender",
          "type": "address"
        },
        {
          "indexed": true,
          "internalType": "address",
          "name": "_receiver",
          "type": "address"
        },
        {
          "indexed": false,
          "internalType": "uint256",
          "name": "_amount",
          "type": "uint256"
        }
      ],
      "name": "DepositTokens",
      "type": "event"
    },
    {
      "anonymous": false,
      "inputs": [
        {
          "indexed": true,
          "internalType": "address",
          "name": "previousOwner",
          "type": "address"
        },
        {
          "indexed": true,
          "internalType": "address",
          "name": "newOwner",
          "type": "address"
        }
      ],
      "name": "OwnershipTransferred",
      "type": "event"
    },
    {
      "anonymous": false,
      "inputs": [
        {
          "indexed": true,
          "internalType": "address",
          "name": "_sender",
          "type": "address"
        },
        {
          "indexed": true,
          "internalType": "address",
          "name": "_receiver",
          "type": "address"
        },
        {
          "indexed": false,
          "internalType": "uint256",
          "name": "_amount",
          "type": "uint256"
        }
      ],
      "name": "ReturnTokens",
      "type": "event"
    },
    {
      "anonymous": false,
      "inputs": [
        {
          "indexed": true,
          "internalType": "address",
          "name": "_receiver",
          "type": "address"
        },
        {
          "indexed": false,
          "internalType": "uint256",
          "name": "_amount",
          "type": "uint256"
        },
        {
          "indexed": false,
          "internalType": "bytes32",
          "name": "_otherChainTransactionHash",
          "type": "bytes32"
        }
      ],
      "name": "TokensBridged",
      "type": "event"
    },
    {
      "stateMutability": "payable",
      "type": "fallback"
    },
    {
      "inputs": [
        {
          "internalType": "address",
          "name": "",
          "type": "address"
        }
      ],
      "name": "bridged",
      "outputs": [
        {
          "internalType": "uint256",
          "name": "",
          "type": "uint256"
        }
      ],
      "stateMutability": "view",
      "type": "function"
    },
    {
      "inputs": [],
      "name": "claimTokens",
      "outputs": [],
      "stateMutability": "payable",
      "type": "function"
    },
    {
      "inputs": [
        {
          "internalType": "address",
          "name": "_receiver",
          "type": "address"
        },
        {
          "internalType": "uint256",
          "name": "_amount",
          "type": "uint256"
        }
      ],
      "name": "depositTokens",
      "outputs": [],
      "stateMutability": "payable",
      "type": "function"
    },
    {
      "inputs": [],
      "name": "locked",
      "outputs": [
        {
          "internalType": "uint256",
          "name": "",
          "type": "uint256"
        }
      ],
      "stateMutability": "view",
      "type": "function"
    },
    {
      "inputs": [],
      "name": "owner",
      "outputs": [
        {
          "internalType": "address",
          "name": "",
          "type": "address"
        }
      ],
      "stateMutability": "view",
      "type": "function"
    },
    {
      "inputs": [
        {
          "internalType": "bytes32",
          "name": "",
          "type": "bytes32"
        }
      ],
      "name": "processedHashes",
      "outputs": [
        {
          "internalType": "bool",
          "name": "",
          "type": "bool"
        }
      ],
      "stateMutability": "view",
      "type": "function"
    },
    {
      "inputs": [],
      "name": "renounceOwnership",
      "outputs": [],
      "stateMutability": "nonpayable",
      "type": "function"
    },
    {
      "inputs": [
        {
          "internalType": "address",
          "name": "_receiver",
          "type": "address"
        }
      ],
      "name": "returnTokens",
      "outputs": [],
      "stateMutability": "payable",
      "type": "function"
    },
    {
      "inputs": [],
      "name": "token",
      "outputs": [
        {
          "internalType": "contract IToken",
          "name": "",
          "type": "address"
        }
      ],
      "stateMutability": "view",
      "type": "function"
    },
    {
      "inputs": [
        {
          "internalType": "address",
          "name": "_receiver",
          "type": "address"
        },
        {
          "internalType": "uint256",
          "name": "_amount",
          "type": "uint256"
        },
        {
          "internalType": "bytes32",
          "name": "_otherChainTransactionHash",
          "type": "bytes32"
        }
      ],
      "name": "tokensBridged",
      "outputs": [],
      "stateMutability": "nonpayable",
      "type": "function"
    },
    {
      "inputs": [
        {
          "internalType": "address",
          "name": "newOwner",
          "type": "address"
        }
      ],
      "name": "transferOwnership",
      "outputs": [],
      "stateMutability": "nonpayable",
      "type": "function"
    },
    {
      "stateMutability": "payable",
      "type": "receive"
    }
  ],
  "bytecode": "0x608060405267016345785d8a000060055534801561001c57600080fd5b50604051610c6a380380610c6a83398101604081905261003b916100bb565b806100453361006b565b600180546001600160a01b0319166001600160a01b0392909216919091179055506100e9565b600080546001600160a01b038381166001600160a01b0319831681178455604051919092169283917f8be0079c531659141344cd1fd0a4f28419497f9722a3daafe3b4186f6b6457e09190a35050565b6000602082840312156100cc578081fd5b81516001600160a01b03811681146100e2578182fd5b9392505050565b610b72806100f86000396000f3fe6080604052600436106100a05760003560e01c80638da5cb5b116100645780638da5cb5b146101c35780639ba3277a146101f5578063cf30901214610230578063d3ef774014610246578063f2fde38b14610259578063fc0c546a14610279576100eb565b806307d9c5341461012c578063147e78b41461017157806348c54b9d1461019357806366168bd71461019b578063715018a6146101ae576100eb565b366100eb5760405162461bcd60e51b81526020600482015260166024820152752237b713ba1030b1b1b2b83a1030b73c9022ba3432b960511b60448201526064015b60405180910390fd5b60405162461bcd60e51b81526020600482015260166024820152752237b713ba1030b1b1b2b83a1030b73c9022ba3432b960511b60448201526064016100e2565b34801561013857600080fd5b5061015c610147366004610a53565b60036020526000908152604090205460ff1681565b60405190151581526020015b60405180910390f35b34801561017d57600080fd5b5061019161018c366004610a01565b610299565b005b610191610430565b6101916101a93660046109d8565b6105f8565b3480156101ba57600080fd5b506101916107ab565b3480156101cf57600080fd5b506000546001600160a01b03165b6040516001600160a01b039091168152602001610168565b34801561020157600080fd5b506102226102103660046109b7565b60026020526000908152604090205481565b604051908152602001610168565b34801561023c57600080fd5b5061022260045481565b6101916102543660046109b7565b6107e1565b34801561026557600080fd5b506101916102743660046109b7565b6108b0565b34801561028557600080fd5b506001546101dd906001600160a01b031681565b6000546001600160a01b031633146102c35760405162461bcd60e51b81526004016100e290610a95565b600082116102e35760405162461bcd60e51b81526004016100e290610aca565b60008181526003602052604090205460ff16156103425760405162461bcd60e51b815260206004820152601a60248201527f5472616e7366657220616c72656164792070726f63657373656400000000000060448201526064016100e2565b6000818152600360209081526040808320805460ff191660011790556001600160a01b0386168352600290915281208054849290610381908490610af7565b90915550506001600160a01b0383166000908152600260205260409020548211156103e75760405162461bcd60e51b8152602060048201526016602482015275546f74616c2062726964676564206f766572666c6f7760501b60448201526064016100e2565b60408051838152602081018390526001600160a01b038516917f2f9a6098d4503a127779ba975f5f6b04f842362b1809f346989e9abc0b4dedb6910160405180910390a2505050565b6005543410156104525760405162461bcd60e51b81526004016100e290610a6b565b336000908152600260205260409020548061047f5760405162461bcd60e51b81526004016100e290610aca565b8060045410156104d15760405162461bcd60e51b815260206004820152601a60248201527f496e73756666696369656e74206c6f636b656420746f6b656e7300000000000060448201526064016100e2565b80600460008282546104e39190610b0f565b90915550503360008181526002602052604080822091909155600154905163a9059cbb60e01b81526004810192909252602482018390526001600160a01b03169063a9059cbb90604401602060405180830381600087803b15801561054757600080fd5b505af115801561055b573d6000803e3d6000fd5b505050506040513d601f19601f8201168201806040525081019061057f9190610a33565b6105c05760405162461bcd60e51b81526020600482015260126024820152712330b4b632b2103a37903a3930b739b332b960711b60448201526064016100e2565b60405181815233907f4d7f917f6b905f28ba5297e6c224a6cfec20ac6a3698a55b412d30b95ad25d2f9060200160405180910390a250565b60055434101561061a5760405162461bcd60e51b81526004016100e290610a6b565b6000811161063a5760405162461bcd60e51b81526004016100e290610aca565b806004600082825461064c9190610af7565b909155505060045481111561069b5760405162461bcd60e51b8152602060048201526015602482015274546f74616c206c6f636b6564206f766572666c6f7760581b60448201526064016100e2565b6001546040516323b872dd60e01b8152336004820152306024820152604481018390526001600160a01b03909116906323b872dd90606401602060405180830381600087803b1580156106ed57600080fd5b505af1158015610701573d6000803e3d6000fd5b505050506040513d601f19601f820116820180604052508101906107259190610a33565b6107665760405162461bcd60e51b81526020600482015260126024820152712330b4b632b2103a37903a3930b739b332b960711b60448201526064016100e2565b6040518181526001600160a01b0383169033907f5b2c363c4205d12f22a6dc6a35136117f80f8cd6897d7a05e7e2987883b05004906020015b60405180910390a35050565b6000546001600160a01b031633146107d55760405162461bcd60e51b81526004016100e290610a95565b6107df600061094b565b565b6005543410156108035760405162461bcd60e51b81526004016100e290610a6b565b33600090815260026020526040902054806108605760405162461bcd60e51b815260206004820152601b60248201527f496e73756666696369656e74206272696467656420746f6b656e73000000000060448201526064016100e2565b3360008181526002602052604080822091909155516001600160a01b03841691907fc1486b07ce125926333063fe38ab9b2673834c6959031ebbb9c5a405e278315d9061079f9085815260200190565b6000546001600160a01b031633146108da5760405162461bcd60e51b81526004016100e290610a95565b6001600160a01b03811661093f5760405162461bcd60e51b815260206004820152602660248201527f4f776e61626c653a206e6577206f776e657220697320746865207a65726f206160448201526564647265737360d01b60648201526084016100e2565b6109488161094b565b50565b600080546001600160a01b038381166001600160a01b0319831681178455604051919092169283917f8be0079c531659141344cd1fd0a4f28419497f9722a3daafe3b4186f6b6457e09190a35050565b80356001600160a01b03811681146109b257600080fd5b919050565b6000602082840312156109c8578081fd5b6109d18261099b565b9392505050565b600080604083850312156109ea578081fd5b6109f38361099b565b946020939093013593505050565b600080600060608486031215610a15578081fd5b610a1e8461099b565b95602085013595506040909401359392505050565b600060208284031215610a44578081fd5b815180151581146109d1578182fd5b600060208284031215610a64578081fd5b5035919050565b60208082526010908201526f496e73756666696369656e742066656560801b604082015260600190565b6020808252818101527f4f776e61626c653a2063616c6c6572206973206e6f7420746865206f776e6572604082015260600190565b602080825260139082015272496e73756666696369656e7420746f6b656e7360681b604082015260600190565b60008219821115610b0a57610b0a610b26565b500190565b600082821015610b2157610b21610b26565b500390565b634e487b7160e01b600052601160045260246000fdfea264697066735822122017c3a1226e8a0883c6874cd947447d47f99d124b4ef169c540ead697682d870764736f6c63430008040033",
  "linkReferences": {},
  "deployedLinkReferences": {}
}