{
  "_format": "hh-sol-artifact-1",
  "contractName": "XFW7Bridge",
  "sourceName": "contracts/XFW7Bridge.sol",
  "abi": [
    {
      "inputs": [
        {
          "internalType": "address",
          "name": "_token",
          "type": "address"
        }
      ],
      "stateMutability": "nonpayable",
      "type": "constructor"
    },
    {
      "anonymous": false,
      "inputs": [
        {
          "indexed": true,
          "internalType": "address",
          "name": "_sender",
          "type": "address"
        },
        {
          "indexed": false,
          "internalType": "uint256",
          "name": "_amount",
          "type": "uint256"
        }
      ],
      "name": "ClaimTokens",
      "type": "event"
    },
    {
      "anonymous": false,
      "inputs": [
        {
          "indexed": true,
          "internalType": "address",
          "name": "_sender",
          "type": "address"
        },
        {
          "indexed": true,
          "internalType": "address",
          "name": "_receiver",
          "type": "address"
        },
        {
          "indexed": false,
          "internalType": "uint256",
          "name": "_amount",
          "type": "uint256"
        }
      ],
      "name": "DepositTokens",
      "type": "event"
    },
    {
      "anonymous": false,
      "inputs": [
        {
          "indexed": true,
          "internalType": "address",
          "name": "previousOwner",
          "type": "address"
        },
        {
          "indexed": true,
          "internalType": "address",
          "name": "newOwner",
          "type": "address"
        }
      ],
      "name": "OwnershipTransferred",
      "type": "event"
    },
    {
      "anonymous": false,
      "inputs": [
        {
          "indexed": true,
          "internalType": "address",
          "name": "_sender",
          "type": "address"
        },
        {
          "indexed": true,
          "internalType": "address",
          "name": "_receiver",
          "type": "address"
        },
        {
          "indexed": false,
          "internalType": "uint256",
          "name": "_amount",
          "type": "uint256"
        }
      ],
      "name": "ReturnTokens",
      "type": "event"
    },
    {
      "anonymous": false,
      "inputs": [
        {
          "indexed": true,
          "internalType": "address",
          "name": "_receiver",
          "type": "address"
        },
        {
          "indexed": false,
          "internalType": "uint256",
          "name": "_amount",
          "type": "uint256"
        },
        {
          "indexed": false,
          "internalType": "bytes32",
          "name": "_otherChainTransactionHash",
          "type": "bytes32"
        }
      ],
      "name": "TokensBridged",
      "type": "event"
    },
    {
      "stateMutability": "payable",
      "type": "fallback"
    },
    {
      "inputs": [
        {
          "internalType": "address",
          "name": "",
          "type": "address"
        }
      ],
      "name": "bridged",
      "outputs": [
        {
          "internalType": "uint256",
          "name": "",
          "type": "uint256"
        }
      ],
      "stateMutability": "view",
      "type": "function"
    },
    {
      "inputs": [],
      "name": "claimTokens",
      "outputs": [],
      "stateMutability": "nonpayable",
      "type": "function"
    },
    {
      "inputs": [
        {
          "internalType": "address",
          "name": "_receiver",
          "type": "address"
        },
        {
          "internalType": "uint256",
          "name": "_amount",
          "type": "uint256"
        },
        {
          "internalType": "uint256",
          "name": "_deadline",
          "type": "uint256"
        },
        {
          "internalType": "uint8",
          "name": "_v",
          "type": "uint8"
        },
        {
          "internalType": "bytes32",
          "name": "_r",
          "type": "bytes32"
        },
        {
          "internalType": "bytes32",
          "name": "_s",
          "type": "bytes32"
        }
      ],
      "name": "depositTokens",
      "outputs": [],
      "stateMutability": "nonpayable",
      "type": "function"
    },
    {
      "inputs": [],
      "name": "owner",
      "outputs": [
        {
          "internalType": "address",
          "name": "",
          "type": "address"
        }
      ],
      "stateMutability": "view",
      "type": "function"
    },
    {
      "inputs": [
        {
          "internalType": "bytes32",
          "name": "",
          "type": "bytes32"
        }
      ],
      "name": "processedHashes",
      "outputs": [
        {
          "internalType": "bool",
          "name": "",
          "type": "bool"
        }
      ],
      "stateMutability": "view",
      "type": "function"
    },
    {
      "inputs": [],
      "name": "renounceOwnership",
      "outputs": [],
      "stateMutability": "nonpayable",
      "type": "function"
    },
    {
      "inputs": [
        {
          "internalType": "address",
          "name": "_receiver",
          "type": "address"
        }
      ],
      "name": "returnTokens",
      "outputs": [],
      "stateMutability": "nonpayable",
      "type": "function"
    },
    {
      "inputs": [],
      "name": "token",
      "outputs": [
        {
          "internalType": "contract IToken",
          "name": "",
          "type": "address"
        }
      ],
      "stateMutability": "view",
      "type": "function"
    },
    {
      "inputs": [
        {
          "internalType": "address",
          "name": "_receiver",
          "type": "address"
        },
        {
          "internalType": "uint256",
          "name": "_amount",
          "type": "uint256"
        },
        {
          "internalType": "bytes32",
          "name": "_otherChainTransactionHash",
          "type": "bytes32"
        }
      ],
      "name": "tokensBridged",
      "outputs": [],
      "stateMutability": "nonpayable",
      "type": "function"
    },
    {
      "inputs": [
        {
          "internalType": "address",
          "name": "newOwner",
          "type": "address"
        }
      ],
      "name": "transferOwnership",
      "outputs": [],
      "stateMutability": "nonpayable",
      "type": "function"
    },
    {
      "stateMutability": "payable",
      "type": "receive"
    }
  ],
  "bytecode": "0x608060405234801561001057600080fd5b50604051610c78380380610c7883398101604081905261002f916100b6565b60016000558061003e33610064565b600280546001600160a01b0319166001600160a01b0392909216919091179055506100e4565b600180546001600160a01b038381166001600160a01b0319831681179093556040519116919082907f8be0079c531659141344cd1fd0a4f28419497f9722a3daafe3b4186f6b6457e090600090a35050565b6000602082840312156100c7578081fd5b81516001600160a01b03811681146100dd578182fd5b9392505050565b610b85806100f36000396000f3fe6080604052600436106100955760003560e01c80639ba3277a116100595780639ba3277a146101e4578063d3ef77401461021f578063e08f24061461023f578063f2fde38b1461025f578063fc0c546a1461027f576100e0565b806307d9c53414610121578063147e78b41461016657806348c54b9d14610188578063715018a61461019d5780638da5cb5b146101b2576100e0565b366100e05760405162461bcd60e51b81526020600482015260166024820152752237b713ba1030b1b1b2b83a1030b73c9022ba3432b960511b60448201526064015b60405180910390fd5b60405162461bcd60e51b81526020600482015260166024820152752237b713ba1030b1b1b2b83a1030b73c9022ba3432b960511b60448201526064016100d7565b34801561012d57600080fd5b5061015161013c366004610ab6565b60046020526000908152604090205460ff1681565b60405190151581526020015b60405180910390f35b34801561017257600080fd5b50610186610181366004610a26565b61029f565b005b34801561019457600080fd5b50610186610482565b3480156101a957600080fd5b506101866105ea565b3480156101be57600080fd5b506001546001600160a01b03165b6040516001600160a01b03909116815260200161015d565b3480156101f057600080fd5b506102116101ff366004610a05565b60036020526000908152604090205481565b60405190815260200161015d565b34801561022b57600080fd5b5061018661023a366004610a05565b610620565b34801561024b57600080fd5b5061018661025a366004610a58565b6106ff565b34801561026b57600080fd5b5061018661027a366004610a05565b6108fc565b34801561028b57600080fd5b506002546101cc906001600160a01b031681565b6001546001600160a01b031633146102c95760405162461bcd60e51b81526004016100d790610af6565b6001600160a01b0383166102ef5760405162461bcd60e51b81526004016100d790610ace565b600082116103355760405162461bcd60e51b8152602060048201526013602482015272496e73756666696369656e7420746f6b656e7360681b60448201526064016100d7565b60008181526004602052604090205460ff16156103945760405162461bcd60e51b815260206004820152601a60248201527f5472616e7366657220616c72656164792070726f63657373656400000000000060448201526064016100d7565b6000818152600460209081526040808320805460ff191660011790556001600160a01b03861683526003909152812080548492906103d3908490610b2b565b90915550506001600160a01b0383166000908152600360205260409020548211156104395760405162461bcd60e51b8152602060048201526016602482015275546f74616c2062726964676564206f766572666c6f7760501b60448201526064016100d7565b60408051838152602081018390526001600160a01b038516917f2f9a6098d4503a127779ba975f5f6b04f842362b1809f346989e9abc0b4dedb6910160405180910390a2505050565b600260005414156104d55760405162461bcd60e51b815260206004820152601f60248201527f5265656e7472616e637947756172643a207265656e7472616e742063616c6c0060448201526064016100d7565b6002600090815533815260036020526040902054806105365760405162461bcd60e51b815260206004820152601b60248201527f496e73756666696369656e74206272696467656420746f6b656e73000000000060448201526064016100d7565b336000818152600360205260408082209190915560025490516308934a5f60e31b81526004810192909252602482018390526001600160a01b03169063449a52f890604401600060405180830381600087803b15801561059557600080fd5b505af11580156105a9573d6000803e3d6000fd5b50506040518381523392507f4d7f917f6b905f28ba5297e6c224a6cfec20ac6a3698a55b412d30b95ad25d2f915060200160405180910390a2506001600055565b6001546001600160a01b031633146106145760405162461bcd60e51b81526004016100d790610af6565b61061e6000610997565b565b6001600160a01b0381166106465760405162461bcd60e51b81526004016100d790610ace565b33600090815260036020526040902054806106a35760405162461bcd60e51b815260206004820152601b60248201527f496e73756666696369656e74206272696467656420746f6b656e73000000000060448201526064016100d7565b3360008181526003602052604080822091909155516001600160a01b03841691907fc1486b07ce125926333063fe38ab9b2673834c6959031ebbb9c5a405e278315d906106f39085815260200190565b60405180910390a35050565b600260005414156107525760405162461bcd60e51b815260206004820152601f60248201527f5265656e7472616e637947756172643a207265656e7472616e742063616c6c0060448201526064016100d7565b60026000556001600160a01b03861661077d5760405162461bcd60e51b81526004016100d790610ace565b600085116107c35760405162461bcd60e51b8152602060048201526013602482015272496e73756666696369656e7420746f6b656e7360681b60448201526064016100d7565b60025460405163d505accf60e01b8152336004820152306024820152604481018790526064810186905260ff8516608482015260a4810184905260c481018390526001600160a01b039091169063d505accf9060e401600060405180830381600087803b15801561083357600080fd5b505af1158015610847573d6000803e3d6000fd5b505060025460405163079cc67960e41b8152336004820152602481018990526001600160a01b0390911692506379cc67909150604401600060405180830381600087803b15801561089757600080fd5b505af11580156108ab573d6000803e3d6000fd5b50506040518781526001600160a01b03891692503391507f5b2c363c4205d12f22a6dc6a35136117f80f8cd6897d7a05e7e2987883b050049060200160405180910390a35050600160005550505050565b6001546001600160a01b031633146109265760405162461bcd60e51b81526004016100d790610af6565b6001600160a01b03811661098b5760405162461bcd60e51b815260206004820152602660248201527f4f776e61626c653a206e6577206f776e657220697320746865207a65726f206160448201526564647265737360d01b60648201526084016100d7565b61099481610997565b50565b600180546001600160a01b038381166001600160a01b0319831681179093556040519116919082907f8be0079c531659141344cd1fd0a4f28419497f9722a3daafe3b4186f6b6457e090600090a35050565b80356001600160a01b0381168114610a0057600080fd5b919050565b600060208284031215610a16578081fd5b610a1f826109e9565b9392505050565b600080600060608486031215610a3a578182fd5b610a43846109e9565b95602085013595506040909401359392505050565b60008060008060008060c08789031215610a70578182fd5b610a79876109e9565b95506020870135945060408701359350606087013560ff81168114610a9c578283fd5b9598949750929560808101359460a0909101359350915050565b600060208284031215610ac7578081fd5b5035919050565b6020808252600e908201526d2bb937b733903932b1b2b4bb32b960911b604082015260600190565b6020808252818101527f4f776e61626c653a2063616c6c6572206973206e6f7420746865206f776e6572604082015260600190565b60008219821115610b4a57634e487b7160e01b81526011600452602481fd5b50019056fea26469706673582212202c6825396543925bff9325fd7621bee7875251abc68b22a1e2be531a44a1ddf864736f6c63430008040033",
  "linkReferences": {},
  "deployedLinkReferences": {}
}